:020000004E2B85
:06000600000000000800EC
:10000C000F3083120313FC004730FD00FD0B0C284E
:0A001C00FC0B0C2800000000080097
:0E002600213083120313FD00FD0B1728080084
:1000340083120317B31B2028861321288617331B2A
:100044002528061326280617B31A2A2886122B28D1
:100054008616331A2F280612302806161C18342840
:10006400061535280611861503208611B3193C2878
:1000740086133D288617331941280613422806178C
:10008400B318462886124728861633184B280612BA
:100094004C2806161C1850280615512806118615DA
:1000A400032086111C1C58280620592813200800F8
:1000B40083120313F801F9011030FC00710DF80DDF
:1000C400F90D7408F8027508031C750FF90203187A
:1000D40072287408F80775080318750FF9070310D8
:0A00E400F00DF10DFC0B6028080080
:1000EE00831203171C102E08B3001A2003171C14BA
:0200FE000800F8
:1001000083120317B1010530310203188E2831081C
:100110003007840020308000B10A8328310830077E
:1001200084008001B10331083007B2000A30F400C6
:10013000F5012E08F0002F08F1005A207808F00091
:100140007908F1003030F007031732088400700896
:1001500080000A30F400F5012E08F0002F08F100AD
:100160005A2070080317AE007108AF000030710606
:10017000031DBC2800307006031DBF28C128B10331
:0401800093280800B8
:10018400D428803083120317A500E728C030A500C7
:10019400E7289430A500E728D430A500E72880306C
:1001A400A500E728831203172508013A0319C32879
:1001B4002508023A0319C8282508033A0319CB284D
:1001C4002508043A0319CE28D1282603F00025086F
:1001D400F0077008A5007008B3001A2003171C105C
:1001E400A801280827078400000803190129280802
:1001F400270784000008AE007720A80AF3281C14FF
:020204000800F0
:1002060083120317AA01AB012508AC002608AD002E
:1002160080302606F00080307002031D142900305D
:100226002502031822290130AA000030AB00250858
:10023600003CAC002608031C013EAD01AD022C08B3
:10024600AE002D08AF002708B00080200630A800B9
:100256000030A9002908003C031D33292808003C6A
:1002660003184E2928082707F20001302802F0005B
:100276000030031C013E2902F100700827078400A4
:100286000008F00072088400700880000130A8029F
:10029600031CA9032D2927088400203080002A0882
:1002A6002B0403196C29A801A90128082707840033
:1002B6000008203A031D6329A80A0319A90A582928
:1002C6000130A802031CA9032808270784002D3043
:0402D600800008009C
:1002DA00013083120317B3001A200C300317B3003E
:1002EA001A2003171D08A5001E08A600B230A70091
:1002FA0003210130A5000130A600A030A700C220CA
:10030A000230A5000830A600B230A700C2200800BB
:10031A00023083120313FC004930FD00FD0B9329C0
:0A032A00FC0B9329000000000800FE
:0E033400831603136F088A006E08820008000B
:10034200013083120317B3001A2001300317A500EE
:100352000130A6003630A700C2200230A5000130CD
:10036200A6002E30A700C2200B30FB002630FC0076
:100372005D30FD00FD0BBB29FC0BBB29FB0BBB2930
:060382000000000008006D
:1003880083120317A4012008F1000130F00071085E
:100398000319D229F00D7010FF3ECC297008A30074
:1003A8001F08840070080005F10071080130031D62
:1003B8000030F0002208F0060319FB292108003C50
:1003C8000318EB298D218D210317A103E2291F08AA
:1003D800840023080005F10071080130031D003076
:1003E800F0002208F0060319FB29FF30A4002408B6
:0403F800F000080009
:1003FC008316031386110611061286120613861332
:10040C008312861106118613061386120612062015
:10041C000620062086160616861503208611062051
:10042C0086150320861106208615032086110620CA
:10043C0006128615032086110620861503208611C8
:10044C00861286178615032086110620861306163B
:10045C0086150320861106128615032086110620A8
:10046C008615032086110616861503208611062094
:10047C000612861503208611861706178616061691
:0E048C00861503208611062003171C14080095
:10049A00013083120317B3001A200C300317B3007C
:1004AA001A2001300317A5000130A6004A30A70020
:1004BA00C2200230A5000130A6006830A700C22081
:0204CA00080028
:1004CC00013083120317B3001A200C300317B3004A
:1004DC001A2001300317A5000130A6005730A700E1
:0404EC00C220080022
:1004F000831203171F088D0083168C130C148312AC
:060500000C08F0000800E9
:0E0506008312031307128716071787130800C6
:0E0514008312031307128716071387170800B8
:10052200831603178C1C972A0000912A83121F0836
:100532008D0020088C0083168C130C150B08F0001C
:100542008B1355308D00AA308D008C14F01BAB2A12
:0A0552008B13AC2A8B170C11080064
:10055C00803083120313F000803056067002031DA6
:10056C00B92A5508033C0318BD2AD501D6015508F4
:10057C00F0005608F100F00DF10D70107008423EBD
:10058C008400000885001A30FC00F830FD00FD0BDB
:10059C00CD2AFC0BCD2A0000D50A0319D60A881ED9
:0405AC00AE2A08006B
:1005B0008030831203135606F00080307002031D52
:1005C000E32A003055020318E92A0330D500003031
:1005D000D6005508F0005608F100F00DF10D70102E
:1005E0007008423E8400000885001A30FC00F83094
:1005F000FD00FD0BF92AFC0BF92A00000130D502A1
:0A060000031CD603881FD82A080047
:10060A009A218A110A128000840AEE0A0319EF0A53
:08061A00F003031D052B08008D
:0E0622008312031307168712071387170800A9
:10063000013083120317B3001A200C300317B300E4
:100640001A2002300317A5000130A6002030A700B1
:04065000C2200800BC
:10065400013083120317B3001A2001300317A500D9
:100664000130A600CD30A700C2200230A500013021
:10067400A600C430A700C2200B30FB002630FC00CB
:100684005D30FD00FD0B442BFC0B442BFB0B442B7A
:08069400000000006D210800C8
:10069C006E258316031788018901031385018601D2
:1006AC00013088000714871488170814881508155A
:1006BC0088168814071287120713871383120712E0
:1006CC00871607138717850186010317871388136D
:1006DC00FE210130B3001A200C300317B3001A208E
:1006EC002A2360309F00782270089D009E0183129F
:1006FC0007309F00A0010130A100A201C4217008A5
:10070C0003198E2B013083160313E8000030E90027
:10071C0083160313680869040319B42B073083127A
:10072C0003179F00A0010130A1000130A200C421D9
:10073C0070080319B42B00301E06031DA72B0030C4
:10074C001D060319B42B0313881EB42B8316E80162
:10075C00E9016622D82211231823DD2B83120317FB
:10076C0000301E06031DBC2B00301D06031DDD2BA7
:10077C000130B3001A2001300317A5000130A60088
:10078C00DB30A700C2200230A5000130A6001030DB
:10079C00A700C2200330FB000830FC007730FD00BE
:1007AC00FD0BD62BFC0BD62BFB0BD62B6D21031381
:1007BC008819E72B0818E72B0819E72B8818E72B63
:1007CC00E82B8A22073003179F000130A00001306C
:1007DC00A100A201C42170080319FA2B0130831661
:1007EC000313EC000030ED00831603136C086D044A
:1007FC000319182C0730831203179F000130A00037
:10080C000130A1000130A200C42170080319182C7A
:10081C000313881E182C8316EC01ED014D22D822EF
:10082C008322182383120313881D212C0130831675
:10083C00EA000030EB0083166A086B0403194D2C98
:10084C00831288194D2C8316EA01EB0101308312B7
:10085C0003179D02031C9E033430FC00F130FD0095
:10086C00FD0B362CFC0B362C00000000AE226D214B
:10087C000B30FB002630FC005D30FD00FD0B442CE2
:10088C00FC0B442CFB0B442C000000002A2383128D
:10089C000313881C562C01308316D9000030DA0063
:1008AC00831659085A040319832C83128818832C35
:1008BC00881A832C8316D901DA01831203179D0A37
:1008CC0003199E0A3430FC00F130FD00FD0B6C2C3A
:1008DC00FC0B6C2C00000000AE226D210B30FB00D9
:1008EC002630FC005D30FD00FD0B7A2CFC0B7A2CC5
:1008FC00FB0B7A2C000000002A2383120313071D24
:10090C008C2C01308316C2000030C30083120719EF
:10091C00972C8316420843040319972CC201C30178
:10092C00A12183120313871DA02C01308316C20052
:10093C000030C30083128719AB2C83164208430482
:10094C000319AB2CC201C301A12183120317603020
:10095C009F001D08A00091223430FC00F130FD00F6
:10096C00FD0BB62CFC0BB62C000000007D2BBD2C17
:100ADC0020308400503083120313F000C33083168F
:100AEC00EE000430EF000523A03084004E3083125A
:100AFC00F00013308316EE000530EF0005231030A4
:100B0C00831784000C308312F00061308316EE00E2
:0A0B1C000530EF00052383130800E5
:1009860044347234693476346534203474346834CB
:0C09960072346F347534673468340034F8
:1009A20074346834653420347734613479340034F3
:1009B200483465346C3470342034693473342034F0
:0809C2006F346E342034003460
:1009CA0005340034063400340A340034093400345F
:1009DA005434683461346E346B34203479346F346F
:0609EA0075342C340034CA
:0409F000003400349B
:1009F4005034723469346E34743469346E34673408
:100A040020347434693463346B34653474342C3472
:020A14000034AC
:100A160047346F346F346434623479346534003467
:100A260041347634613469346C34613462346C3404
:100A3600653420347334703461346334653473340C
:040A46003A3400340A
:100A4A0000340034003400340034003400340034FC
:100A5A0000340034003400340034003400340034EC
:040A6A000034003420
:100A6E004334613472345034613472346B342E3406
:020A7E00003442
:100A8000573465346C3463346F346D3465342034DA
:080A900074346F34203400348B
:040A980000340034F2
:100A9C004334613472347034613472346B342034C6
:0A0AAC00463475346C346C340034A9
:040AB60000340034D4
:040ABA0000340034D0
:040ABE0000340034CC
:100AC20050346C34653461347334653420344534C5
:080AD2007834693474340034F7
:04400E00F22F000786
:020000040000FA
:1042000000000000000000000000000000000000AE
:10421000000000000000000000000000000000009E
:10422000000000000000000000000000000000008E
:10423000000000000000000000000000000000007E
:10424000000000000000000000000000000000006E
:10425000000000000000000000000000000000005E
:10426000000000000000000000000000000000004E
:10427000000000000000000000000000000000003E
:10428000000000000000000000000000000000002E
:10429000000000000000000000000000000000001E
:1042A000000000000000000000000000000000000E
:1042B00000000000000000000000000000000000FE
:1042C00017001700000000000000000000000000C0
:1042D00000000000000000000000000000000000DE
:1042E00000000000000000000000000000000000CE
:1042F00000000000000000000000000000000000BE
:1043000000000000000000000000000000000000AD
:10431000000000000000000000000000000000009D
:10432000000000000000000000000000000000008D
:10433000000000000000000000000000000000007D
:10434000000000000000000000000000000000006D
:10435000000000000000000000000000000000005D
:10436000000000000000000000000000000000004D
:10437000000000000000000000000000000000003D
:10438000000000000000000000000000000000002D
:10439000000000000000000000000000000000001D
:1043A000000000000000000000000000000000000D
:1043B00000000000000000000000000000000000FD
:1043C00000000000000000000000000000000000ED
:1043D00000000000000000000000000000000000DD
:1043E00000000000000000000000000000000000CD
:1043F00000000000000000000000000000000000BD
:00000001FF

